{
  "contractName": "Hospital",
  "abi": [
    {
      "constant": true,
      "inputs": [],
      "name": "name",
      "outputs": [
        {
          "name": "",
          "type": "string"
        }
      ],
      "payable": false,
      "stateMutability": "view",
      "type": "function",
      "signature": "0x06fdde03"
    },
    {
      "constant": true,
      "inputs": [
        {
          "name": "",
          "type": "uint256"
        }
      ],
      "name": "doctors",
      "outputs": [
        {
          "name": "id",
          "type": "uint256"
        },
        {
          "name": "name",
          "type": "string"
        },
        {
          "name": "doc_acc",
          "type": "address"
        },
        {
          "name": "Cons_fees",
          "type": "uint256"
        },
        {
          "name": "specialisation",
          "type": "string"
        },
        {
          "name": "purchased",
          "type": "bool"
        }
      ],
      "payable": false,
      "stateMutability": "view",
      "type": "function",
      "signature": "0x6efb1b84"
    },
    {
      "constant": true,
      "inputs": [],
      "name": "doctorCount",
      "outputs": [
        {
          "name": "",
          "type": "uint256"
        }
      ],
      "payable": false,
      "stateMutability": "view",
      "type": "function",
      "signature": "0x78522bc4"
    },
    {
      "constant": true,
      "inputs": [
        {
          "name": "",
          "type": "uint256"
        }
      ],
      "name": "patients",
      "outputs": [
        {
          "name": "id",
          "type": "uint256"
        },
        {
          "name": "name",
          "type": "string"
        },
        {
          "name": "pat_acc",
          "type": "address"
        },
        {
          "name": "special",
          "type": "string"
        },
        {
          "name": "doctor_account",
          "type": "address"
        }
      ],
      "payable": false,
      "stateMutability": "view",
      "type": "function",
      "signature": "0x93119a83"
    },
    {
      "constant": true,
      "inputs": [],
      "name": "patientCount",
      "outputs": [
        {
          "name": "",
          "type": "uint256"
        }
      ],
      "payable": false,
      "stateMutability": "view",
      "type": "function",
      "signature": "0xa0303c41"
    },
    {
      "inputs": [],
      "payable": false,
      "stateMutability": "nonpayable",
      "type": "constructor",
      "signature": "constructor"
    },
    {
      "anonymous": false,
      "inputs": [
        {
          "indexed": false,
          "name": "id",
          "type": "uint256"
        },
        {
          "indexed": false,
          "name": "name",
          "type": "string"
        },
        {
          "indexed": false,
          "name": "doctor_acc",
          "type": "address"
        },
        {
          "indexed": false,
          "name": "fees",
          "type": "uint256"
        },
        {
          "indexed": false,
          "name": "special",
          "type": "string"
        },
        {
          "indexed": false,
          "name": "purchased",
          "type": "bool"
        }
      ],
      "name": "DoctorAdded",
      "type": "event",
      "signature": "0x96765778da2475fd221b4ac92741365cf2dceebf53fefaaf1257b40289f3c178"
    },
    {
      "anonymous": false,
      "inputs": [
        {
          "indexed": false,
          "name": "id",
          "type": "uint256"
        },
        {
          "indexed": false,
          "name": "name",
          "type": "string"
        },
        {
          "indexed": false,
          "name": "doctor_acc",
          "type": "address"
        },
        {
          "indexed": false,
          "name": "fees",
          "type": "uint256"
        },
        {
          "indexed": false,
          "name": "special",
          "type": "string"
        },
        {
          "indexed": false,
          "name": "purchased",
          "type": "bool"
        }
      ],
      "name": "AppointmentPurchased",
      "type": "event",
      "signature": "0x460b0bf53114e5ce1b43eeb55eccdad64712b6ac96f0db4fca1bf334367956d5"
    },
    {
      "constant": false,
      "inputs": [
        {
          "name": "_name",
          "type": "string"
        },
        {
          "name": "_fees",
          "type": "uint256"
        },
        {
          "name": "_special",
          "type": "string"
        }
      ],
      "name": "addDoctor",
      "outputs": [],
      "payable": false,
      "stateMutability": "nonpayable",
      "type": "function",
      "signature": "0xed59fead"
    },
    {
      "constant": false,
      "inputs": [
        {
          "name": "_id",
          "type": "uint256"
        },
        {
          "name": "_pat_nem",
          "type": "string"
        },
        {
          "name": "_pat_spec",
          "type": "string"
        }
      ],
      "name": "addAppointment",
      "outputs": [],
      "payable": true,
      "stateMutability": "payable",
      "type": "function",
      "signature": "0x160d0c37"
    }
  ],
  "bytecode": "0x6080604052600060015560006003553480156200001b57600080fd5b506040805190810160405280601181526020017f4e6174696f6e616c20486f73706974616c000000000000000000000000000000815250600090805190602001906200006992919062000070565b506200011f565b828054600181600116156101000203166002900490600052602060002090601f016020900481019282601f10620000b357805160ff1916838001178555620000e4565b82800160010185558215620000e4579182015b82811115620000e3578251825591602001919060010190620000c6565b5b509050620000f39190620000f7565b5090565b6200011c91905b8082111562000118576000816000905550600101620000fe565b5090565b90565b611232806200012f6000396000f3fe608060405260043610610083576000357c0100000000000000000000000000000000000000000000000000000000900463ffffffff16806306fdde0314610088578063160d0c37146100b35780636efb1b84146100cf57806378522bc41461011157806393119a831461013c578063a0303c411461017d578063ed59fead146101a8575b600080fd5b34801561009457600080fd5b5061009d6101d1565b6040516100aa9190610f68565b60405180910390f35b6100cd60048036036100c89190810190610e50565b61026f565b005b3480156100db57600080fd5b506100f660048036036100f19190810190610e27565b61076f565b60405161010896959493929190611075565b60405180910390f35b34801561011d57600080fd5b50610126610908565b6040516101339190610f8a565b60405180910390f35b34801561014857600080fd5b50610163600480360361015e9190810190610e27565b61090e565b604051610174959493929190611014565b60405180910390f35b34801561018957600080fd5b50610192610ab4565b60405161019f9190610f8a565b60405180910390f35b3480156101b457600080fd5b506101cf60048036036101ca9190810190610da8565b610aba565b005b60008054600181600116156101000203166002900480601f0160208091040260200160405190810160405280929190818152602001828054600181600116156101000203166002900480156102675780601f1061023c57610100808354040283529160200191610267565b820191906000526020600020905b81548152906001019060200180831161024a57829003601f168201915b505050505081565b600033905061027c610c4a565b6002600086815260200190815260200160002060c0604051908101604052908160008201548152602001600182018054600181600116156101000203166002900480601f01602080910402602001604051908101604052809291908181526020018280546001816001161561010002031660029004801561033e5780601f106103135761010080835404028352916020019161033e565b820191906000526020600020905b81548152906001019060200180831161032157829003601f168201915b505050505081526020016002820160009054906101000a900473ffffffffffffffffffffffffffffffffffffffff1673ffffffffffffffffffffffffffffffffffffffff1673ffffffffffffffffffffffffffffffffffffffff16815260200160038201548152602001600482018054600181600116156101000203166002900480601f0160208091040260200160405190810160405280929190818152602001828054600181600116156101000203166002900480156104405780601f1061041557610100808354040283529160200191610440565b820191906000526020600020905b81548152906001019060200180831161042357829003601f168201915b505050505081526020016005820160009054906101000a900460ff161515151581525050905060008160400151905060018260a001901515908115158152505081600260008881526020019081526020016000206000820151816000015560208201518160010190805190602001906104ba929190610c99565b5060408201518160020160006101000a81548173ffffffffffffffffffffffffffffffffffffffff021916908373ffffffffffffffffffffffffffffffffffffffff160217905550606082015181600301556080820151816004019080519060200190610528929190610c99565b5060a08201518160050160006101000a81548160ff0219169083151502179055509050508073ffffffffffffffffffffffffffffffffffffffff166108fc349081150290604051600060405180830381858888f19350505050158015610592573d6000803e3d6000fd5b5060a06040519081016040528060035481526020018681526020013373ffffffffffffffffffffffffffffffffffffffff1681526020018581526020016002600089815260200190815260200160002060020160009054906101000a900473ffffffffffffffffffffffffffffffffffffffff1673ffffffffffffffffffffffffffffffffffffffff168152506004600060036000815480929190600101919050558152602001908152602001600020600082015181600001556020820151816001019080519060200190610668929190610c99565b5060408201518160020160006101000a81548173ffffffffffffffffffffffffffffffffffffffff021916908373ffffffffffffffffffffffffffffffffffffffff16021790555060608201518160030190805190602001906106cc929190610c99565b5060808201518160040160006101000a81548173ffffffffffffffffffffffffffffffffffffffff021916908373ffffffffffffffffffffffffffffffffffffffff1602179055509050507f460b0bf53114e5ce1b43eeb55eccdad64712b6ac96f0db4fca1bf334367956d560015483602001513385606001518660800151600160405161075f96959493929190611075565b60405180910390a1505050505050565b6002602052806000526040600020600091509050806000015490806001018054600181600116156101000203166002900480601f0160208091040260200160405190810160405280929190818152602001828054600181600116156101000203166002900480156108215780601f106107f657610100808354040283529160200191610821565b820191906000526020600020905b81548152906001019060200180831161080457829003601f168201915b5050505050908060020160009054906101000a900473ffffffffffffffffffffffffffffffffffffffff1690806003015490806004018054600181600116156101000203166002900480601f0160208091040260200160405190810160405280929190818152602001828054600181600116156101000203166002900480156108eb5780601f106108c0576101008083540402835291602001916108eb565b820191906000526020600020905b8154815290600101906020018083116108ce57829003601f168201915b5050505050908060050160009054906101000a900460ff16905086565b60015481565b6004602052806000526040600020600091509050806000015490806001018054600181600116156101000203166002900480601f0160208091040260200160405190810160405280929190818152602001828054600181600116156101000203166002900480156109c05780601f10610995576101008083540402835291602001916109c0565b820191906000526020600020905b8154815290600101906020018083116109a357829003601f168201915b5050505050908060020160009054906101000a900473ffffffffffffffffffffffffffffffffffffffff1690806003018054600181600116156101000203166002900480601f016020809104026020016040519081016040528092919081815260200182805460018160011615610100020316600290048015610a845780601f10610a5957610100808354040283529160200191610a84565b820191906000526020600020905b815481529060010190602001808311610a6757829003601f168201915b5050505050908060040160009054906101000a900473ffffffffffffffffffffffffffffffffffffffff16905085565b60035481565b60008351111515610aca57600080fd5b600082111515610ad957600080fd5b60016000815480929190600101919050555060c06040519081016040528060015481526020018481526020013373ffffffffffffffffffffffffffffffffffffffff16815260200183815260200182815260200160001515815250600260006001548152602001908152602001600020600082015181600001556020820151816001019080519060200190610b6f929190610c99565b5060408201518160020160006101000a81548173ffffffffffffffffffffffffffffffffffffffff021916908373ffffffffffffffffffffffffffffffffffffffff160217905550606082015181600301556080820151816004019080519060200190610bdd929190610c99565b5060a08201518160050160006101000a81548160ff0219169083151502179055509050507f96765778da2475fd221b4ac92741365cf2dceebf53fefaaf1257b40289f3c178600154843385856000604051610c3d96959493929190610fa5565b60405180910390a1505050565b60c0604051908101604052806000815260200160608152602001600073ffffffffffffffffffffffffffffffffffffffff16815260200160008152602001606081526020016000151581525090565b828054600181600116156101000203166002900490600052602060002090601f016020900481019282601f10610cda57805160ff1916838001178555610d08565b82800160010185558215610d08579182015b82811115610d07578251825591602001919060010190610cec565b5b509050610d159190610d19565b5090565b610d3b91905b80821115610d37576000816000905550600101610d1f565b5090565b90565b600082601f8301121515610d5157600080fd5b8135610d64610d5f82611111565b6110e4565b91508082526020830160208301858383011115610d8057600080fd5b610d8b8382846111a5565b50505092915050565b6000610da0823561119b565b905092915050565b600080600060608486031215610dbd57600080fd5b600084013567ffffffffffffffff811115610dd757600080fd5b610de386828701610d3e565b9350506020610df486828701610d94565b925050604084013567ffffffffffffffff811115610e1157600080fd5b610e1d86828701610d3e565b9150509250925092565b600060208284031215610e3957600080fd5b6000610e4784828501610d94565b91505092915050565b600080600060608486031215610e6557600080fd5b6000610e7386828701610d94565b935050602084013567ffffffffffffffff811115610e9057600080fd5b610e9c86828701610d3e565b925050604084013567ffffffffffffffff811115610eb957600080fd5b610ec586828701610d3e565b9150509250925092565b610ed881611153565b82525050565b610ee781611165565b82525050565b6000610ef882611148565b808452610f0c8160208601602086016111b4565b610f15816111e7565b602085010191505092915050565b6000610f2e8261113d565b808452610f428160208601602086016111b4565b610f4b816111e7565b602085010191505092915050565b610f6281611191565b82525050565b60006020820190508181036000830152610f828184610f23565b905092915050565b6000602082019050610f9f6000830184610f59565b92915050565b600060c082019050610fba6000830189610f59565b8181036020830152610fcc8188610eed565b9050610fdb6040830187610ecf565b610fe86060830186610f59565b8181036080830152610ffa8185610eed565b905061100960a0830184610ede565b979650505050505050565b600060a0820190506110296000830188610f59565b818103602083015261103b8187610f23565b905061104a6040830186610ecf565b818103606083015261105c8185610f23565b905061106b6080830184610ecf565b9695505050505050565b600060c08201905061108a6000830189610f59565b818103602083015261109c8188610f23565b90506110ab6040830187610ecf565b6110b86060830186610f59565b81810360808301526110ca8185610f23565b90506110d960a0830184610ede565b979650505050505050565b6000604051905081810181811067ffffffffffffffff8211171561110757600080fd5b8060405250919050565b600067ffffffffffffffff82111561112857600080fd5b601f19601f8301169050602081019050919050565b600081519050919050565b600081519050919050565b600061115e82611171565b9050919050565b60008115159050919050565b600073ffffffffffffffffffffffffffffffffffffffff82169050919050565b6000819050919050565b6000819050919050565b82818337600083830152505050565b60005b838110156111d25780820151818401526020810190506111b7565b838111156111e1576000848401525b50505050565b6000601f19601f830116905091905056fea265627a7a72305820f1fd5eb4468a2b0f8059055a6547c78db5184bf6c36d57124780148da4a63c146c6578706572696d656e74616cf50037",
  "source": "pragma solidity >=0.4.21;\npragma experimental ABIEncoderV2;\n// pragma solidity ^0.5.16;\ncontract Hospital {\n    string public name;\n    constructor () public {\n        name = \"National Hospital\";\n    }\n\n    uint public doctorCount = 0;\n    mapping(uint => Doctor) public doctors;\n\n    uint public patientCount = 0;\n    mapping(uint => Patient) public patients;\n\n    struct Patient{\n        uint id;\n        string name;\n        address payable pat_acc;\n        string special;\n        address payable doctor_account;\n    }\n    \n\tstruct Doctor{\n\t\tuint id;\n\t\tstring name;\n        address payable doc_acc;\n\t\tuint Cons_fees;\n\t\tstring specialisation;\n        bool purchased;\n\t}\n\t\n\tevent DoctorAdded(\n        uint id,\n        string name,\n        address payable doctor_acc,\n        uint fees,\n        string special,\n        bool purchased\n    );\n    event AppointmentPurchased(\n        uint id,\n        string name,\n        address payable doctor_acc,\n        uint fees,\n        string special,\n        bool purchased\n    );\n\n\t\n\n\tfunction addDoctor(string memory _name, uint _fees, string memory _special) public {\n        \n        // Require a valid name\n        require(bytes(_name).length > 0);\n        // Require a valid price\n        require(_fees > 0);\n        // Increment doctor count\n        doctorCount ++;\n        // Add the doctor\n        \n        doctors[doctorCount] = Doctor(doctorCount, _name,(msg.sender),_fees, _special,false);\n        // Triggering the event\n        emit DoctorAdded(doctorCount, _name,(msg.sender), _fees, _special,false);\n    }\n    function addAppointment(uint _id,string memory _pat_nem,string memory _pat_spec) public payable {\n        //create a patient\n        //Patient storage pat = Patient(patientCount,_pat_nem,msg.sender,_pat_spec);\n        address payable temp;\n        temp=msg.sender; \n        \n        //fetch the doctor\n        Doctor memory _doctor = doctors[_id];\n        \n        //fetch the owner\n        address payable _seller = _doctor.doc_acc;\n        //mark as purchased\n        _doctor.purchased = true;\n        //update doctor\n        doctors[_id] = _doctor;\n        //pay the seller\n        address(_seller).transfer(msg.value);\n        //trigger an event\n        patients[patientCount++]=Patient(patientCount,_pat_nem,msg.sender,_pat_spec,doctors[_id].doc_acc);\n        \n        emit AppointmentPurchased(doctorCount, _doctor.name,(msg.sender),   _doctor.Cons_fees, _doctor.specialisation,true);\n\n    }\n    \n}",
  "sourcePath": "/Users/vatsal007/Desktop/Monies-Hackathon/src/contracts/Hospital.sol",
  "compiler": {
    "name": "solc",
    "version": "0.5.0+commit.1d4f565a.Emscripten.clang"
  },
  "schemaVersion": "3.0.1",
  "updatedAt": "2022-02-13T10:36:05.125Z",
  "devdoc": {
    "methods": {}
  },
  "userdoc": {
    "methods": {}
  }
}