{
  "contractName": "Hospital",
  "abi": [
    {
      "constant": true,
      "inputs": [],
      "name": "name",
      "outputs": [
        {
          "name": "",
          "type": "string"
        }
      ],
      "payable": false,
      "stateMutability": "view",
      "type": "function",
      "signature": "0x06fdde03"
    },
    {
      "constant": true,
      "inputs": [
        {
          "name": "",
          "type": "uint256"
        }
      ],
      "name": "doctors",
      "outputs": [
        {
          "name": "id",
          "type": "uint256"
        },
        {
          "name": "name",
          "type": "string"
        },
        {
          "name": "doc_acc",
          "type": "address"
        },
        {
          "name": "Cons_fees",
          "type": "uint256"
        },
        {
          "name": "specialisation",
          "type": "string"
        }
      ],
      "payable": false,
      "stateMutability": "view",
      "type": "function",
      "signature": "0x6efb1b84"
    },
    {
      "constant": true,
      "inputs": [],
      "name": "doctorCount",
      "outputs": [
        {
          "name": "",
          "type": "uint256"
        }
      ],
      "payable": false,
      "stateMutability": "view",
      "type": "function",
      "signature": "0x78522bc4"
    },
    {
      "constant": true,
      "inputs": [
        {
          "name": "",
          "type": "uint256"
        }
      ],
      "name": "patients",
      "outputs": [
        {
          "name": "id",
          "type": "uint256"
        },
        {
          "name": "name",
          "type": "string"
        },
        {
          "name": "pat_acc",
          "type": "address"
        },
        {
          "name": "special",
          "type": "string"
        }
      ],
      "payable": false,
      "stateMutability": "view",
      "type": "function",
      "signature": "0x93119a83"
    },
    {
      "constant": true,
      "inputs": [],
      "name": "patientCount",
      "outputs": [
        {
          "name": "",
          "type": "uint256"
        }
      ],
      "payable": false,
      "stateMutability": "view",
      "type": "function",
      "signature": "0xa0303c41"
    },
    {
      "inputs": [],
      "payable": false,
      "stateMutability": "nonpayable",
      "type": "constructor",
      "signature": "constructor"
    },
    {
      "anonymous": false,
      "inputs": [
        {
          "indexed": false,
          "name": "id",
          "type": "uint256"
        },
        {
          "indexed": false,
          "name": "name",
          "type": "string"
        },
        {
          "indexed": false,
          "name": "doctor_acc",
          "type": "address"
        },
        {
          "indexed": false,
          "name": "fees",
          "type": "uint256"
        },
        {
          "indexed": false,
          "name": "special",
          "type": "string"
        }
      ],
      "name": "DoctorAdded",
      "type": "event",
      "signature": "0x86496cefb7cf580bacee72eb874d20e6b7812518a4721f9925072bdcc2cb2226"
    },
    {
      "anonymous": false,
      "inputs": [
        {
          "indexed": false,
          "name": "id",
          "type": "uint256"
        },
        {
          "indexed": false,
          "name": "name",
          "type": "string"
        },
        {
          "indexed": false,
          "name": "pat_acc",
          "type": "address"
        },
        {
          "indexed": false,
          "name": "special",
          "type": "string"
        }
      ],
      "name": "PatientAdded",
      "type": "event",
      "signature": "0x47498ce311b667011f30411e5754e2d3ee6042db6e03adcafbca104759817e0d"
    },
    {
      "constant": false,
      "inputs": [
        {
          "name": "_name",
          "type": "string"
        },
        {
          "name": "_fees",
          "type": "uint256"
        },
        {
          "name": "_special",
          "type": "string"
        }
      ],
      "name": "addDoctor",
      "outputs": [],
      "payable": false,
      "stateMutability": "nonpayable",
      "type": "function",
      "signature": "0xed59fead"
    },
    {
      "constant": false,
      "inputs": [
        {
          "name": "_name",
          "type": "string"
        },
        {
          "name": "_special",
          "type": "string"
        }
      ],
      "name": "addPatient",
      "outputs": [],
      "payable": false,
      "stateMutability": "nonpayable",
      "type": "function",
      "signature": "0x239ee6c1"
    }
  ],
  "bytecode": "0x60806040526000600155600060035534801561001a57600080fd5b506040805190810160405280601181526020017f4e6174696f6e616c20486f73706974616c0000000000000000000000000000008152506000908051906020019061006692919061006c565b50610111565b828054600181600116156101000203166002900490600052602060002090601f016020900481019282601f106100ad57805160ff19168380011785556100db565b828001600101855582156100db579182015b828111156100da5782518255916020019190600101906100bf565b5b5090506100e891906100ec565b5090565b61010e91905b8082111561010a5760008160009055506001016100f2565b5090565b90565b61102e80620001216000396000f3fe608060405260043610610083576000357c0100000000000000000000000000000000000000000000000000000000900463ffffffff16806306fdde0314610088578063239ee6c1146101185780636efb1b841461027757806378522bc4146103d857806393119a8314610403578063a0303c411461055d578063ed59fead14610588575b600080fd5b34801561009457600080fd5b5061009d6106f1565b6040518080602001828103825283818151815260200191508051906020019080838360005b838110156100dd5780820151818401526020810190506100c2565b50505050905090810190601f16801561010a5780820380516001836020036101000a031916815260200191505b509250505060405180910390f35b34801561012457600080fd5b506102756004803603604081101561013b57600080fd5b810190808035906020019064010000000081111561015857600080fd5b82018360208201111561016a57600080fd5b8035906020019184600183028401116401000000008311171561018c57600080fd5b91908080601f016020809104026020016040519081016040528093929190818152602001838380828437600081840152601f19601f820116905080830192505050505050509192919290803590602001906401000000008111156101ef57600080fd5b82018360208201111561020157600080fd5b8035906020019184600183028401116401000000008311171561022357600080fd5b91908080601f016020809104026020016040519081016040528093929190818152602001838380828437600081840152601f19601f82011690508083019250505050505050919291929050505061078f565b005b34801561028357600080fd5b506102b06004803603602081101561029a57600080fd5b81019080803590602001909291905050506109d9565b60405180868152602001806020018573ffffffffffffffffffffffffffffffffffffffff1673ffffffffffffffffffffffffffffffffffffffff16815260200184815260200180602001838103835287818151815260200191508051906020019080838360005b83811015610332578082015181840152602081019050610317565b50505050905090810190601f16801561035f5780820380516001836020036101000a031916815260200191505b50838103825284818151815260200191508051906020019080838360005b8381101561039857808201518184015260208101905061037d565b50505050905090810190601f1680156103c55780820380516001836020036101000a031916815260200191505b5097505050505050505060405180910390f35b3480156103e457600080fd5b506103ed610b5f565b6040518082815260200191505060405180910390f35b34801561040f57600080fd5b5061043c6004803603602081101561042657600080fd5b8101908080359060200190929190505050610b65565b60405180858152602001806020018473ffffffffffffffffffffffffffffffffffffffff1673ffffffffffffffffffffffffffffffffffffffff16815260200180602001838103835286818151815260200191508051906020019080838360005b838110156104b857808201518184015260208101905061049d565b50505050905090810190601f1680156104e55780820380516001836020036101000a031916815260200191505b50838103825284818151815260200191508051906020019080838360005b8381101561051e578082015181840152602081019050610503565b50505050905090810190601f16801561054b5780820380516001836020036101000a031916815260200191505b50965050505050505060405180910390f35b34801561056957600080fd5b50610572610ce5565b6040518082815260200191505060405180910390f35b34801561059457600080fd5b506106ef600480360360608110156105ab57600080fd5b81019080803590602001906401000000008111156105c857600080fd5b8201836020820111156105da57600080fd5b803590602001918460018302840111640100000000831117156105fc57600080fd5b91908080601f016020809104026020016040519081016040528093929190818152602001838380828437600081840152601f19601f820116905080830192505050505050509192919290803590602001909291908035906020019064010000000081111561066957600080fd5b82018360208201111561067b57600080fd5b8035906020019184600183028401116401000000008311171561069d57600080fd5b91908080601f016020809104026020016040519081016040528093929190818152602001838380828437600081840152601f19601f820116905080830192505050505050509192919290505050610ceb565b005b60008054600181600116156101000203166002900480601f0160208091040260200160405190810160405280929190818152602001828054600181600116156101000203166002900480156107875780601f1061075c57610100808354040283529160200191610787565b820191906000526020600020905b81548152906001019060200180831161076a57829003601f168201915b505050505081565b6000825111151561079f57600080fd5b60036000815480929190600101919050555060806040519081016040528060035481526020018381526020013373ffffffffffffffffffffffffffffffffffffffff16815260200182815250600460006003548152602001908152602001600020600082015181600001556020820151816001019080519060200190610826929190610f5d565b5060408201518160020160006101000a81548173ffffffffffffffffffffffffffffffffffffffff021916908373ffffffffffffffffffffffffffffffffffffffff160217905550606082015181600301908051906020019061088a929190610f5d565b509050507f47498ce311b667011f30411e5754e2d3ee6042db6e03adcafbca104759817e0d60035483338460405180858152602001806020018473ffffffffffffffffffffffffffffffffffffffff1673ffffffffffffffffffffffffffffffffffffffff16815260200180602001838103835286818151815260200191508051906020019080838360005b83811015610931578082015181840152602081019050610916565b50505050905090810190601f16801561095e5780820380516001836020036101000a031916815260200191505b50838103825284818151815260200191508051906020019080838360005b8381101561099757808201518184015260208101905061097c565b50505050905090810190601f1680156109c45780820380516001836020036101000a031916815260200191505b50965050505050505060405180910390a15050565b6002602052806000526040600020600091509050806000015490806001018054600181600116156101000203166002900480601f016020809104026020016040519081016040528092919081815260200182805460018160011615610100020316600290048015610a8b5780601f10610a6057610100808354040283529160200191610a8b565b820191906000526020600020905b815481529060010190602001808311610a6e57829003601f168201915b5050505050908060020160009054906101000a900473ffffffffffffffffffffffffffffffffffffffff1690806003015490806004018054600181600116156101000203166002900480601f016020809104026020016040519081016040528092919081815260200182805460018160011615610100020316600290048015610b555780601f10610b2a57610100808354040283529160200191610b55565b820191906000526020600020905b815481529060010190602001808311610b3857829003601f168201915b5050505050905085565b60015481565b6004602052806000526040600020600091509050806000015490806001018054600181600116156101000203166002900480601f016020809104026020016040519081016040528092919081815260200182805460018160011615610100020316600290048015610c175780601f10610bec57610100808354040283529160200191610c17565b820191906000526020600020905b815481529060010190602001808311610bfa57829003601f168201915b5050505050908060020160009054906101000a900473ffffffffffffffffffffffffffffffffffffffff1690806003018054600181600116156101000203166002900480601f016020809104026020016040519081016040528092919081815260200182805460018160011615610100020316600290048015610cdb5780601f10610cb057610100808354040283529160200191610cdb565b820191906000526020600020905b815481529060010190602001808311610cbe57829003601f168201915b5050505050905084565b60035481565b60008351111515610cfb57600080fd5b600082111515610d0a57600080fd5b60016000815480929190600101919050555060a06040519081016040528060015481526020018481526020013373ffffffffffffffffffffffffffffffffffffffff16815260200183815260200182815250600260006001548152602001908152602001600020600082015181600001556020820151816001019080519060200190610d97929190610f5d565b5060408201518160020160006101000a81548173ffffffffffffffffffffffffffffffffffffffff021916908373ffffffffffffffffffffffffffffffffffffffff160217905550606082015181600301556080820151816004019080519060200190610e05929190610f5d565b509050507f86496cefb7cf580bacee72eb874d20e6b7812518a4721f9925072bdcc2cb22266001548433858560405180868152602001806020018573ffffffffffffffffffffffffffffffffffffffff1673ffffffffffffffffffffffffffffffffffffffff16815260200184815260200180602001838103835287818151815260200191508051906020019080838360005b83811015610eb3578082015181840152602081019050610e98565b50505050905090810190601f168015610ee05780820380516001836020036101000a031916815260200191505b50838103825284818151815260200191508051906020019080838360005b83811015610f19578082015181840152602081019050610efe565b50505050905090810190601f168015610f465780820380516001836020036101000a031916815260200191505b5097505050505050505060405180910390a1505050565b828054600181600116156101000203166002900490600052602060002090601f016020900481019282601f10610f9e57805160ff1916838001178555610fcc565b82800160010185558215610fcc579182015b82811115610fcb578251825591602001919060010190610fb0565b5b509050610fd99190610fdd565b5090565b610fff91905b80821115610ffb576000816000905550600101610fe3565b5090565b9056fea165627a7a723058202538c236210258b6d09f17d67d8c41904f1d87cf4bf33395ed7a0c710e2d45350029",
  "source": "pragma solidity >=0.4.21;\n\ncontract Hospital {\n    string public name;\n    constructor () public {\n        name = \"National Hospital\";\n    }\n\n    uint public doctorCount = 0;\n    mapping(uint => Doctor) public doctors;\n\n\tstruct Doctor{\n\t\tuint id;\n\t\tstring name;\n\t\taddress payable doc_acc;\n\t\tuint Cons_fees;\n\t\tstring specialisation;\n\t}\n\t\n\tevent DoctorAdded(\n        uint id,\n        string name,\n        address payable doctor_acc,\n        uint fees,\n        string special\n    );\n\n\t\n\n\tfunction addDoctor(string memory _name, uint _fees, string memory _special) public {\n        // Require a valid name\n        require(bytes(_name).length > 0);\n        // Require a valid price\n        require(_fees > 0);\n        // Increment doctor count\n        doctorCount ++;\n        // Add the doctor\n        doctors[doctorCount] = Doctor(doctorCount, _name, msg.sender, _fees, _special);\n        // Triggering the event\n        emit DoctorAdded(doctorCount, _name, msg.sender, _fees, _special);\n    }\n\n    uint public patientCount = 0;\n    mapping(uint => Patient) public patients;\n    struct Patient{\n        uint id;\n        string name;\n        address payable pat_acc;\n        string special;\n    }\n    event PatientAdded(\n        uint id,\n        string name,\n        address payable pat_acc,\n        string special\n    );\n    function addPatient(string memory _name, string memory _special) public {\n        // Require a valid name\n        require(bytes(_name).length > 0);\n\n        // Increment patient count\n        patientCount ++;\n        // Add the patient\n        patients[patientCount] = Patient(patientCount, _name, msg.sender, _special);\n        // Triggering the event\n        emit PatientAdded(patientCount, _name, msg.sender, _special);\n    }\n}",
  "sourcePath": "/Users/vatsal007/Desktop/Monies-Hackathon/src/contracts/Hospital.sol",
  "compiler": {
    "name": "solc",
    "version": "0.5.0+commit.1d4f565a.Emscripten.clang"
  },
  "schemaVersion": "3.0.1",
  "updatedAt": "2022-02-10T09:55:21.133Z",
  "devdoc": {
    "methods": {}
  },
  "userdoc": {
    "methods": {}
  }
}