{
  "contractName": "Hospital",
  "abi": [
    {
      "inputs": [],
      "payable": false,
      "stateMutability": "nonpayable",
      "type": "constructor"
    },
    {
      "anonymous": false,
      "inputs": [
        {
          "indexed": false,
          "internalType": "uint256",
          "name": "id",
          "type": "uint256"
        },
        {
          "indexed": false,
          "internalType": "string",
          "name": "name",
          "type": "string"
        },
        {
          "indexed": false,
          "internalType": "address payable",
          "name": "doctor_acc",
          "type": "address"
        },
        {
          "indexed": false,
          "internalType": "uint256",
          "name": "fees",
          "type": "uint256"
        },
        {
          "indexed": false,
          "internalType": "string",
          "name": "special",
          "type": "string"
        },
        {
          "indexed": false,
          "internalType": "bool",
          "name": "purchased",
          "type": "bool"
        }
      ],
      "name": "AppointmentPurchased",
      "type": "event"
    },
    {
      "anonymous": false,
      "inputs": [
        {
          "indexed": false,
          "internalType": "uint256",
          "name": "id",
          "type": "uint256"
        },
        {
          "indexed": false,
          "internalType": "string",
          "name": "name",
          "type": "string"
        },
        {
          "indexed": false,
          "internalType": "address payable",
          "name": "doctor_acc",
          "type": "address"
        },
        {
          "indexed": false,
          "internalType": "uint256",
          "name": "fees",
          "type": "uint256"
        },
        {
          "indexed": false,
          "internalType": "string",
          "name": "special",
          "type": "string"
        },
        {
          "indexed": false,
          "internalType": "bool",
          "name": "purchased",
          "type": "bool"
        }
      ],
      "name": "DoctorAdded",
      "type": "event"
    },
    {
      "anonymous": false,
      "inputs": [
        {
          "indexed": false,
          "internalType": "uint256",
          "name": "id",
          "type": "uint256"
        },
        {
          "indexed": false,
          "internalType": "string",
          "name": "name",
          "type": "string"
        },
        {
          "indexed": false,
          "internalType": "address payable",
          "name": "pat_acc",
          "type": "address"
        },
        {
          "indexed": false,
          "internalType": "string",
          "name": "special",
          "type": "string"
        }
      ],
      "name": "PatientAdded",
      "type": "event"
    },
    {
      "constant": true,
      "inputs": [],
      "name": "doctorCount",
      "outputs": [
        {
          "internalType": "uint256",
          "name": "",
          "type": "uint256"
        }
      ],
      "payable": false,
      "stateMutability": "view",
      "type": "function"
    },
    {
      "constant": true,
      "inputs": [
        {
          "internalType": "uint256",
          "name": "",
          "type": "uint256"
        }
      ],
      "name": "doctors",
      "outputs": [
        {
          "internalType": "uint256",
          "name": "id",
          "type": "uint256"
        },
        {
          "internalType": "string",
          "name": "name",
          "type": "string"
        },
        {
          "internalType": "address payable",
          "name": "doc_acc",
          "type": "address"
        },
        {
          "internalType": "uint256",
          "name": "Cons_fees",
          "type": "uint256"
        },
        {
          "internalType": "string",
          "name": "specialisation",
          "type": "string"
        },
        {
          "internalType": "bool",
          "name": "purchased",
          "type": "bool"
        }
      ],
      "payable": false,
      "stateMutability": "view",
      "type": "function"
    },
    {
      "constant": true,
      "inputs": [],
      "name": "name",
      "outputs": [
        {
          "internalType": "string",
          "name": "",
          "type": "string"
        }
      ],
      "payable": false,
      "stateMutability": "view",
      "type": "function"
    },
    {
      "constant": true,
      "inputs": [],
      "name": "patientCount",
      "outputs": [
        {
          "internalType": "uint256",
          "name": "",
          "type": "uint256"
        }
      ],
      "payable": false,
      "stateMutability": "view",
      "type": "function"
    },
    {
      "constant": true,
      "inputs": [
        {
          "internalType": "uint256",
          "name": "",
          "type": "uint256"
        }
      ],
      "name": "patients",
      "outputs": [
        {
          "internalType": "uint256",
          "name": "id",
          "type": "uint256"
        },
        {
          "internalType": "string",
          "name": "name",
          "type": "string"
        },
        {
          "internalType": "address payable",
          "name": "pat_acc",
          "type": "address"
        },
        {
          "internalType": "string",
          "name": "special",
          "type": "string"
        },
        {
          "internalType": "address payable",
          "name": "doctor_account",
          "type": "address"
        }
      ],
      "payable": false,
      "stateMutability": "view",
      "type": "function"
    },
    {
      "constant": false,
      "inputs": [
        {
          "internalType": "string",
          "name": "_name",
          "type": "string"
        },
        {
          "internalType": "uint256",
          "name": "_fees",
          "type": "uint256"
        },
        {
          "internalType": "string",
          "name": "_special",
          "type": "string"
        }
      ],
      "name": "addDoctor",
      "outputs": [],
      "payable": false,
      "stateMutability": "nonpayable",
      "type": "function"
    },
    {
      "constant": false,
      "inputs": [
        {
          "internalType": "uint256",
          "name": "_id",
          "type": "uint256"
        },
        {
          "internalType": "string",
          "name": "_pat_nem",
          "type": "string"
        },
        {
          "internalType": "string",
          "name": "_pat_spec",
          "type": "string"
        }
      ],
      "name": "addAppointment",
      "outputs": [],
      "payable": true,
      "stateMutability": "payable",
      "type": "function"
    }
  ],
  "bytecode": "0x6080604052600060015560006003553480156200001b57600080fd5b506040518060400160405280601181526020017f4e6174696f6e616c20486f73706974616c000000000000000000000000000000815250600090805190602001906200006992919062000070565b506200011f565b828054600181600116156101000203166002900490600052602060002090601f016020900481019282601f10620000b357805160ff1916838001178555620000e4565b82800160010185558215620000e4579182015b82811115620000e3578251825591602001919060010190620000c6565b5b509050620000f39190620000f7565b5090565b6200011c91905b8082111562000118576000816000905550600101620000fe565b5090565b90565b611243806200012f6000396000f3fe6080604052600436106100705760003560e01c806378522bc41161004e57806378522bc4146100fe57806393119a8314610129578063a0303c411461016a578063ed59fead1461019557610070565b806306fdde0314610075578063160d0c37146100a05780636efb1b84146100bc575b600080fd5b34801561008157600080fd5b5061008a6101be565b6040516100979190610f52565b60405180910390f35b6100ba60048036036100b59190810190610e34565b61025c565b005b3480156100c857600080fd5b506100e360048036036100de9190810190610e0b565b61075a565b6040516100f59695949392919061105f565b60405180910390f35b34801561010a57600080fd5b506101136108f3565b6040516101209190610f74565b60405180910390f35b34801561013557600080fd5b50610150600480360361014b9190810190610e0b565b6108f9565b604051610161959493929190610ffe565b60405180910390f35b34801561017657600080fd5b5061017f610a9f565b60405161018c9190610f74565b60405180910390f35b3480156101a157600080fd5b506101bc60048036036101b79190810190610d8c565b610aa5565b005b60008054600181600116156101000203166002900480601f0160208091040260200160405190810160405280929190818152602001828054600181600116156101000203166002900480156102545780601f1061022957610100808354040283529160200191610254565b820191906000526020600020905b81548152906001019060200180831161023757829003601f168201915b505050505081565b6000339050610269610c30565b600260008681526020019081526020016000206040518060c001604052908160008201548152602001600182018054600181600116156101000203166002900480601f01602080910402602001604051908101604052809291908181526020018280546001816001161561010002031660029004801561032a5780601f106102ff5761010080835404028352916020019161032a565b820191906000526020600020905b81548152906001019060200180831161030d57829003601f168201915b505050505081526020016002820160009054906101000a900473ffffffffffffffffffffffffffffffffffffffff1673ffffffffffffffffffffffffffffffffffffffff1673ffffffffffffffffffffffffffffffffffffffff16815260200160038201548152602001600482018054600181600116156101000203166002900480601f01602080910402602001604051908101604052809291908181526020018280546001816001161561010002031660029004801561042c5780601f106104015761010080835404028352916020019161042c565b820191906000526020600020905b81548152906001019060200180831161040f57829003601f168201915b505050505081526020016005820160009054906101000a900460ff161515151581525050905060008160400151905060018260a001901515908115158152505081600260008881526020019081526020016000206000820151816000015560208201518160010190805190602001906104a6929190610c7e565b5060408201518160020160006101000a81548173ffffffffffffffffffffffffffffffffffffffff021916908373ffffffffffffffffffffffffffffffffffffffff160217905550606082015181600301556080820151816004019080519060200190610514929190610c7e565b5060a08201518160050160006101000a81548160ff0219169083151502179055509050508073ffffffffffffffffffffffffffffffffffffffff166108fc349081150290604051600060405180830381858888f1935050505015801561057e573d6000803e3d6000fd5b506040518060a0016040528060035481526020018681526020013373ffffffffffffffffffffffffffffffffffffffff1681526020018581526020016002600089815260200190815260200160002060020160009054906101000a900473ffffffffffffffffffffffffffffffffffffffff1673ffffffffffffffffffffffffffffffffffffffff168152506004600060036000815480929190600101919050558152602001908152602001600020600082015181600001556020820151816001019080519060200190610653929190610c7e565b5060408201518160020160006101000a81548173ffffffffffffffffffffffffffffffffffffffff021916908373ffffffffffffffffffffffffffffffffffffffff16021790555060608201518160030190805190602001906106b7929190610c7e565b5060808201518160040160006101000a81548173ffffffffffffffffffffffffffffffffffffffff021916908373ffffffffffffffffffffffffffffffffffffffff1602179055509050507f460b0bf53114e5ce1b43eeb55eccdad64712b6ac96f0db4fca1bf334367956d560015483602001513385606001518660800151600160405161074a9695949392919061105f565b60405180910390a1505050505050565b6002602052806000526040600020600091509050806000015490806001018054600181600116156101000203166002900480601f01602080910402602001604051908101604052809291908181526020018280546001816001161561010002031660029004801561080c5780601f106107e15761010080835404028352916020019161080c565b820191906000526020600020905b8154815290600101906020018083116107ef57829003601f168201915b5050505050908060020160009054906101000a900473ffffffffffffffffffffffffffffffffffffffff1690806003015490806004018054600181600116156101000203166002900480601f0160208091040260200160405190810160405280929190818152602001828054600181600116156101000203166002900480156108d65780601f106108ab576101008083540402835291602001916108d6565b820191906000526020600020905b8154815290600101906020018083116108b957829003601f168201915b5050505050908060050160009054906101000a900460ff16905086565b60015481565b6004602052806000526040600020600091509050806000015490806001018054600181600116156101000203166002900480601f0160208091040260200160405190810160405280929190818152602001828054600181600116156101000203166002900480156109ab5780601f10610980576101008083540402835291602001916109ab565b820191906000526020600020905b81548152906001019060200180831161098e57829003601f168201915b5050505050908060020160009054906101000a900473ffffffffffffffffffffffffffffffffffffffff1690806003018054600181600116156101000203166002900480601f016020809104026020016040519081016040528092919081815260200182805460018160011615610100020316600290048015610a6f5780601f10610a4457610100808354040283529160200191610a6f565b820191906000526020600020905b815481529060010190602001808311610a5257829003601f168201915b5050505050908060040160009054906101000a900473ffffffffffffffffffffffffffffffffffffffff16905085565b60035481565b6000835111610ab357600080fd5b60008211610ac057600080fd5b6001600081548092919060010191905055506040518060c0016040528060015481526020018481526020013373ffffffffffffffffffffffffffffffffffffffff16815260200183815260200182815260200160001515815250600260006001548152602001908152602001600020600082015181600001556020820151816001019080519060200190610b55929190610c7e565b5060408201518160020160006101000a81548173ffffffffffffffffffffffffffffffffffffffff021916908373ffffffffffffffffffffffffffffffffffffffff160217905550606082015181600301556080820151816004019080519060200190610bc3929190610c7e565b5060a08201518160050160006101000a81548160ff0219169083151502179055509050507f96765778da2475fd221b4ac92741365cf2dceebf53fefaaf1257b40289f3c178600154843385856000604051610c2396959493929190610f8f565b60405180910390a1505050565b6040518060c001604052806000815260200160608152602001600073ffffffffffffffffffffffffffffffffffffffff16815260200160008152602001606081526020016000151581525090565b828054600181600116156101000203166002900490600052602060002090601f016020900481019282601f10610cbf57805160ff1916838001178555610ced565b82800160010185558215610ced579182015b82811115610cec578251825591602001919060010190610cd1565b5b509050610cfa9190610cfe565b5090565b610d2091905b80821115610d1c576000816000905550600101610d04565b5090565b90565b600082601f830112610d3457600080fd5b8135610d47610d42826110fb565b6110ce565b91508082526020830160208301858383011115610d6357600080fd5b610d6e838284611196565b50505092915050565b600081359050610d86816111e9565b92915050565b600080600060608486031215610da157600080fd5b600084013567ffffffffffffffff811115610dbb57600080fd5b610dc786828701610d23565b9350506020610dd886828701610d77565b925050604084013567ffffffffffffffff811115610df557600080fd5b610e0186828701610d23565b9150509250925092565b600060208284031215610e1d57600080fd5b6000610e2b84828501610d77565b91505092915050565b600080600060608486031215610e4957600080fd5b6000610e5786828701610d77565b935050602084013567ffffffffffffffff811115610e7457600080fd5b610e8086828701610d23565b925050604084013567ffffffffffffffff811115610e9d57600080fd5b610ea986828701610d23565b9150509250925092565b610ebc8161114e565b82525050565b610ecb81611160565b82525050565b6000610edc82611132565b610ee6818561113d565b9350610ef68185602086016111a5565b610eff816111d8565b840191505092915050565b6000610f1582611127565b610f1f818561113d565b9350610f2f8185602086016111a5565b610f38816111d8565b840191505092915050565b610f4c8161118c565b82525050565b60006020820190508181036000830152610f6c8184610f0a565b905092915050565b6000602082019050610f896000830184610f43565b92915050565b600060c082019050610fa46000830189610f43565b8181036020830152610fb68188610ed1565b9050610fc56040830187610eb3565b610fd26060830186610f43565b8181036080830152610fe48185610ed1565b9050610ff360a0830184610ec2565b979650505050505050565b600060a0820190506110136000830188610f43565b81810360208301526110258187610f0a565b90506110346040830186610eb3565b81810360608301526110468185610f0a565b90506110556080830184610eb3565b9695505050505050565b600060c0820190506110746000830189610f43565b81810360208301526110868188610f0a565b90506110956040830187610eb3565b6110a26060830186610f43565b81810360808301526110b48185610f0a565b90506110c360a0830184610ec2565b979650505050505050565b6000604051905081810181811067ffffffffffffffff821117156110f157600080fd5b8060405250919050565b600067ffffffffffffffff82111561111257600080fd5b601f19601f8301169050602081019050919050565b600081519050919050565b600081519050919050565b600082825260208201905092915050565b60006111598261116c565b9050919050565b60008115159050919050565b600073ffffffffffffffffffffffffffffffffffffffff82169050919050565b6000819050919050565b82818337600083830152505050565b60005b838110156111c35780820151818401526020810190506111a8565b838111156111d2576000848401525b50505050565b6000601f19601f8301169050919050565b6111f28161118c565b81146111fd57600080fd5b5056fea365627a7a72315820ff909e113d10070a5e15e6ce733df81ecae2d879dfaa7ed8d506240112eb348f6c6578706572696d656e74616cf564736f6c63430005100040",
  "source": "pragma solidity >=0.4.21;\npragma experimental ABIEncoderV2;\n// pragma solidity ^0.5.16;\ncontract Hospital {\n    string public name;\n    constructor () public {\n        name = \"National Hospital\";\n    }\n\n    uint public doctorCount = 0;\n    mapping(uint => Doctor) public doctors;\n\n     uint public patientCount = 0;\n    mapping(uint => Patient) public patients;\n\n    struct Patient{\n        uint id;\n        string name;\n        address payable pat_acc;\n        string special;\n        address payable doctor_account;\n    }\n    \n\tstruct Doctor{\n\t\tuint id;\n\t\tstring name;\n        address payable doc_acc;\n\t\tuint Cons_fees;\n\t\tstring specialisation;\n        bool purchased;\n\t}\n\t\n\tevent DoctorAdded(\n        uint id,\n        string name,\n        address payable doctor_acc,\n        uint fees,\n        string special,\n        bool purchased\n    );\n    event AppointmentPurchased(\n        uint id,\n        string name,\n        address payable doctor_acc,\n        uint fees,\n        string special,\n        bool purchased\n    );\n\n\t\n\n\tfunction addDoctor(string memory _name, uint _fees, string memory _special) public {\n        \n        // Require a valid name\n        require(bytes(_name).length > 0);\n        // Require a valid price\n        require(_fees > 0);\n        // Increment doctor count\n        doctorCount ++;\n        // Add the doctor\n        \n        doctors[doctorCount] = Doctor(doctorCount, _name,(msg.sender),_fees, _special,false);\n        // Triggering the event\n        emit DoctorAdded(doctorCount, _name,(msg.sender), _fees, _special,false);\n    }\n    function addAppointment(uint _id,string memory _pat_nem,string memory _pat_spec) public payable {\n        //create a patient\n        //Patient storage pat = Patient(patientCount,_pat_nem,msg.sender,_pat_spec);\n        address payable temp;\n        temp=msg.sender; \n        \n        //fetch the doctor\n        Doctor memory _doctor = doctors[_id];\n        \n        //fetch the owner\n        address payable _seller = _doctor.doc_acc;\n        //mark as purchased\n        _doctor.purchased = true;\n        //update doctor\n        doctors[_id] = _doctor;\n        //pay the seller\n        address(_seller).transfer(msg.value);\n        //trigger an event\n        patients[patientCount++]=Patient(patientCount,_pat_nem,msg.sender,_pat_spec,doctors[_id].doc_acc);\n        \n        emit AppointmentPurchased(doctorCount, _doctor.name,(msg.sender),   _doctor.Cons_fees, _doctor.specialisation,true);\n\n    }\n\n   \n    \n    event PatientAdded(\n        uint id,\n        string name,\n        address payable pat_acc,\n        string special\n    );\n\n    // function addPatient(string memory _name, string memory _special) public {\n    //     // Require a valid name\n    //     require(bytes(_name).length > 0);\n\n    //     // Increment patient count\n    //     patientCount ++;\n    //     // Add the patient\n    //     patients[patientCount] = Patient(patientCount, _name, (msg.sender), _special);\n    //     // Triggering the event\n    //     emit PatientAdded(patientCount, _name, (msg.sender), _special);\n    // }\n}",
  "sourcePath": "/home/knight-night/Projects/starter_kit-master/src/contracts/Hospital.sol",
  "compiler": {
    "name": "solc",
    "version": "0.5.16+commit.9c3226ce.Emscripten.clang"
  },
  "schemaVersion": "3.4.4",
  "updatedAt": "2022-02-13T07:18:11.232Z",
  "networkType": "ethereum",
  "devdoc": {
    "methods": {}
  },
  "userdoc": {
    "methods": {}
  }
}